{
  "contractName": "Marketplace",
  "abi": [
    {
      "constant": true,
      "inputs": [],
      "name": "demandCount",
      "outputs": [
        {
          "name": "",
          "type": "uint256"
        }
      ],
      "payable": false,
      "stateMutability": "view",
      "type": "function",
      "signature": "0x03b2bf8e"
    },
    {
      "constant": true,
      "inputs": [],
      "name": "name",
      "outputs": [
        {
          "name": "",
          "type": "string"
        }
      ],
      "payable": false,
      "stateMutability": "view",
      "type": "function",
      "signature": "0x06fdde03"
    },
    {
      "constant": true,
      "inputs": [],
      "name": "energyCount",
      "outputs": [
        {
          "name": "",
          "type": "uint256"
        }
      ],
      "payable": false,
      "stateMutability": "view",
      "type": "function",
      "signature": "0x32bfe85d"
    },
    {
      "constant": true,
      "inputs": [
        {
          "name": "",
          "type": "uint256"
        }
      ],
      "name": "energies",
      "outputs": [
        {
          "name": "id",
          "type": "uint256"
        },
        {
          "name": "quantity",
          "type": "uint256"
        },
        {
          "name": "price",
          "type": "uint256"
        },
        {
          "name": "owner",
          "type": "address"
        },
        {
          "name": "purchased",
          "type": "bool"
        }
      ],
      "payable": false,
      "stateMutability": "view",
      "type": "function",
      "signature": "0x61588a4e"
    },
    {
      "constant": true,
      "inputs": [
        {
          "name": "",
          "type": "uint256"
        }
      ],
      "name": "energyDemands",
      "outputs": [
        {
          "name": "id",
          "type": "uint256"
        },
        {
          "name": "quantity",
          "type": "uint256"
        },
        {
          "name": "price",
          "type": "uint256"
        },
        {
          "name": "owner",
          "type": "address"
        },
        {
          "name": "purchased",
          "type": "bool"
        }
      ],
      "payable": false,
      "stateMutability": "view",
      "type": "function",
      "signature": "0xd9dd60ac"
    },
    {
      "inputs": [],
      "payable": false,
      "stateMutability": "nonpayable",
      "type": "constructor",
      "signature": "constructor"
    },
    {
      "anonymous": false,
      "inputs": [
        {
          "indexed": false,
          "name": "id",
          "type": "uint256"
        },
        {
          "indexed": false,
          "name": "quantity",
          "type": "uint256"
        },
        {
          "indexed": false,
          "name": "price",
          "type": "uint256"
        },
        {
          "indexed": false,
          "name": "owner",
          "type": "address"
        },
        {
          "indexed": false,
          "name": "purchased",
          "type": "bool"
        }
      ],
      "name": "EnergyCreated",
      "type": "event",
      "signature": "0x598ef438da9cd1dac82d6186bd1033d073b4a2e7080c443dc09c4496af577763"
    },
    {
      "anonymous": false,
      "inputs": [
        {
          "indexed": false,
          "name": "id",
          "type": "uint256"
        },
        {
          "indexed": false,
          "name": "quantity",
          "type": "uint256"
        },
        {
          "indexed": false,
          "name": "price",
          "type": "uint256"
        },
        {
          "indexed": false,
          "name": "owner",
          "type": "address"
        },
        {
          "indexed": false,
          "name": "purchased",
          "type": "bool"
        }
      ],
      "name": "EnergyPurchased",
      "type": "event",
      "signature": "0x33ce15a9158ce0f34940658bf7efe6916f0cdd1b0ac8ddfa80f2c0b565a81a9e"
    },
    {
      "anonymous": false,
      "inputs": [
        {
          "indexed": false,
          "name": "id",
          "type": "uint256"
        },
        {
          "indexed": false,
          "name": "quantity",
          "type": "uint256"
        },
        {
          "indexed": false,
          "name": "price",
          "type": "uint256"
        },
        {
          "indexed": false,
          "name": "owner",
          "type": "address"
        },
        {
          "indexed": false,
          "name": "purchased",
          "type": "bool"
        }
      ],
      "name": "EnergyDemandCreated",
      "type": "event",
      "signature": "0xf8ef4388349546b6e0f5063ec53f858f7a445b0563e55e7ec3a190a79b818604"
    },
    {
      "anonymous": false,
      "inputs": [
        {
          "indexed": false,
          "name": "id",
          "type": "uint256"
        },
        {
          "indexed": false,
          "name": "quantity",
          "type": "uint256"
        },
        {
          "indexed": false,
          "name": "price",
          "type": "uint256"
        },
        {
          "indexed": false,
          "name": "buyer",
          "type": "address"
        },
        {
          "indexed": false,
          "name": "seller",
          "type": "address"
        },
        {
          "indexed": false,
          "name": "purchased",
          "type": "bool"
        }
      ],
      "name": "EnergyDemandFulfilled",
      "type": "event",
      "signature": "0x77c4568dabb6a0cfd3bd2c2887fdb2b2ae43de751722843dacb8b97f8398c074"
    },
    {
      "constant": false,
      "inputs": [
        {
          "name": "_quantity",
          "type": "uint256"
        },
        {
          "name": "_price",
          "type": "uint256"
        }
      ],
      "name": "sellEnergy",
      "outputs": [],
      "payable": false,
      "stateMutability": "nonpayable",
      "type": "function",
      "signature": "0xe79317e2"
    },
    {
      "constant": false,
      "inputs": [
        {
          "name": "_id",
          "type": "uint256"
        }
      ],
      "name": "purchaseEnergy",
      "outputs": [],
      "payable": true,
      "stateMutability": "payable",
      "type": "function",
      "signature": "0x6afe2520"
    },
    {
      "constant": false,
      "inputs": [
        {
          "name": "_quantity",
          "type": "uint256"
        },
        {
          "name": "_price",
          "type": "uint256"
        }
      ],
      "name": "createEnergyDemand",
      "outputs": [],
      "payable": false,
      "stateMutability": "nonpayable",
      "type": "function",
      "signature": "0x2c0576b9"
    },
    {
      "constant": false,
      "inputs": [
        {
          "name": "_id",
          "type": "uint256"
        }
      ],
      "name": "fulfillEnergyDemand",
      "outputs": [],
      "payable": true,
      "stateMutability": "payable",
      "type": "function",
      "signature": "0x82ec08b2"
    }
  ],
  "bytecode": "0x60806040526000600155600060035534801561001a57600080fd5b506040805190810160405280600881526020017f56657264655061790000000000000000000000000000000000000000000000008152506000908051906020019061006692919061006c565b50610111565b828054600181600116156101000203166002900490600052602060002090601f016020900481019282601f106100ad57805160ff19168380011785556100db565b828001600101855582156100db579182015b828111156100da5782518255916020019190600101906100bf565b5b5090506100e891906100ec565b5090565b61010e91905b8082111561010a5760008160009055506001016100f2565b5090565b90565b610f6e806101206000396000f3fe608060405260043610610099576000357c0100000000000000000000000000000000000000000000000000000000900463ffffffff16806303b2bf8e1461009e57806306fdde03146100c95780632c0576b91461015957806332bfe85d1461019e57806361588a4e146101c95780636afe25201461026457806382ec08b214610292578063d9dd60ac146102c0578063e79317e21461035b575b600080fd5b3480156100aa57600080fd5b506100b36103a0565b6040518082815260200191505060405180910390f35b3480156100d557600080fd5b506100de6103a6565b6040518080602001828103825283818151815260200191508051906020019080838360005b8381101561011e578082015181840152602081019050610103565b50505050905090810190601f16801561014b5780820380516001836020036101000a031916815260200191505b509250505060405180910390f35b34801561016557600080fd5b5061019c6004803603604081101561017c57600080fd5b810190808035906020019092919080359060200190929190505050610444565b005b3480156101aa57600080fd5b506101b36105e2565b6040518082815260200191505060405180910390f35b3480156101d557600080fd5b50610202600480360360208110156101ec57600080fd5b81019080803590602001909291905050506105e8565b604051808681526020018581526020018481526020018373ffffffffffffffffffffffffffffffffffffffff1673ffffffffffffffffffffffffffffffffffffffff168152602001821515151581526020019550505050505060405180910390f35b6102906004803603602081101561027a57600080fd5b810190808035906020019092919050505061064b565b005b6102be600480360360208110156102a857600080fd5b8101908080359060200190929190505050610953565b005b3480156102cc57600080fd5b506102f9600480360360208110156102e357600080fd5b8101908080359060200190929190505050610cf9565b604051808681526020018581526020018481526020018373ffffffffffffffffffffffffffffffffffffffff1673ffffffffffffffffffffffffffffffffffffffff168152602001821515151581526020019550505050505060405180910390f35b34801561036757600080fd5b5061039e6004803603604081101561037e57600080fd5b810190808035906020019092919080359060200190929190505050610d5c565b005b60035481565b60008054600181600116156101000203166002900480601f01602080910402602001604051908101604052809291908181526020018280546001816001161561010002031660029004801561043c5780601f106104115761010080835404028352916020019161043c565b820191906000526020600020905b81548152906001019060200180831161041f57829003601f168201915b505050505081565b60008211151561045357600080fd5b60008111151561046257600080fd5b60036000815480929190600101919050555060a06040519081016040528060035481526020018381526020018281526020013373ffffffffffffffffffffffffffffffffffffffff1681526020016000151581525060046000600354815260200190815260200160002060008201518160000155602082015181600101556040820151816002015560608201518160030160006101000a81548173ffffffffffffffffffffffffffffffffffffffff021916908373ffffffffffffffffffffffffffffffffffffffff16021790555060808201518160030160146101000a81548160ff0219169083151502179055509050507ff8ef4388349546b6e0f5063ec53f858f7a445b0563e55e7ec3a190a79b8186046003548383336000604051808681526020018581526020018481526020018373ffffffffffffffffffffffffffffffffffffffff1673ffffffffffffffffffffffffffffffffffffffff168152602001821515151581526020019550505050505060405180910390a15050565b60015481565b60026020528060005260406000206000915090508060000154908060010154908060020154908060030160009054906101000a900473ffffffffffffffffffffffffffffffffffffffff16908060030160149054906101000a900460ff16905085565b610653610efa565b6002600083815260200190815260200160002060a060405190810160405290816000820154815260200160018201548152602001600282015481526020016003820160009054906101000a900473ffffffffffffffffffffffffffffffffffffffff1673ffffffffffffffffffffffffffffffffffffffff1673ffffffffffffffffffffffffffffffffffffffff1681526020016003820160149054906101000a900460ff1615151515815250509050600081606001519050600082600001511180156107265750600154826000015111155b151561073157600080fd5b8160400151341015151561074457600080fd5b816080015115151561075557600080fd5b3373ffffffffffffffffffffffffffffffffffffffff168173ffffffffffffffffffffffffffffffffffffffff161415151561079057600080fd5b33826060019073ffffffffffffffffffffffffffffffffffffffff16908173ffffffffffffffffffffffffffffffffffffffff16815250506001826080019015159081151581525050816002600085815260200190815260200160002060008201518160000155602082015181600101556040820151816002015560608201518160030160006101000a81548173ffffffffffffffffffffffffffffffffffffffff021916908373ffffffffffffffffffffffffffffffffffffffff16021790555060808201518160030160146101000a81548160ff0219169083151502179055509050508073ffffffffffffffffffffffffffffffffffffffff166108fc349081150290604051600060405180830381858888f193505050501580156108bb573d6000803e3d6000fd5b507f33ce15a9158ce0f34940658bf7efe6916f0cdd1b0ac8ddfa80f2c0b565a81a9e60015483602001518460400151336001604051808681526020018581526020018481526020018373ffffffffffffffffffffffffffffffffffffffff1673ffffffffffffffffffffffffffffffffffffffff168152602001821515151581526020019550505050505060405180910390a1505050565b60008111801561096557506003548111155b15156109d9576040517f08c379a00000000000000000000000000000000000000000000000000000000081526004018080602001828103825260118152602001807f496e76616c69642064656d616e6420494400000000000000000000000000000081525060200191505060405180910390fd5b60006004600083815260200190815260200160002090508060030160149054906101000a900460ff16151515610a77576040517f08c379a00000000000000000000000000000000000000000000000000000000081526004018080602001828103825260188152602001807f44656d616e6420616c72656164792066756c66696c6c6564000000000000000081525060200191505060405180910390fd5b80600201543410151515610af3576040517f08c379a00000000000000000000000000000000000000000000000000000000081526004018080602001828103825260128152602001807f496e73756666696369656e742066756e6473000000000000000000000000000081525060200191505060405180910390fd5b60008160030160009054906101000a900473ffffffffffffffffffffffffffffffffffffffff1690506000339050808360030160006101000a81548173ffffffffffffffffffffffffffffffffffffffff021916908373ffffffffffffffffffffffffffffffffffffffff16021790555060018360030160146101000a81548160ff02191690831515021790555060003390508073ffffffffffffffffffffffffffffffffffffffff166108fc85600201549081150290604051600060405180830381858888f19350505050158015610bd0573d6000803e3d6000fd5b5060008460020154340390506000811115610c2d578273ffffffffffffffffffffffffffffffffffffffff166108fc829081150290604051600060405180830381858888f19350505050158015610c2b573d6000803e3d6000fd5b505b7f77c4568dabb6a0cfd3bd2c2887fdb2b2ae43de751722843dacb8b97f8398c074868660010154876002015486886001604051808781526020018681526020018581526020018473ffffffffffffffffffffffffffffffffffffffff1673ffffffffffffffffffffffffffffffffffffffff1681526020018373ffffffffffffffffffffffffffffffffffffffff1673ffffffffffffffffffffffffffffffffffffffff16815260200182151515158152602001965050505050505060405180910390a1505050505050565b60046020528060005260406000206000915090508060000154908060010154908060020154908060030160009054906101000a900473ffffffffffffffffffffffffffffffffffffffff16908060030160149054906101000a900460ff16905085565b600082111515610d6b57600080fd5b600081111515610d7a57600080fd5b60016000815480929190600101919050555060a06040519081016040528060015481526020018381526020018281526020013373ffffffffffffffffffffffffffffffffffffffff1681526020016000151581525060026000600154815260200190815260200160002060008201518160000155602082015181600101556040820151816002015560608201518160030160006101000a81548173ffffffffffffffffffffffffffffffffffffffff021916908373ffffffffffffffffffffffffffffffffffffffff16021790555060808201518160030160146101000a81548160ff0219169083151502179055509050507f598ef438da9cd1dac82d6186bd1033d073b4a2e7080c443dc09c4496af5777636001548383336000604051808681526020018581526020018481526020018373ffffffffffffffffffffffffffffffffffffffff1673ffffffffffffffffffffffffffffffffffffffff168152602001821515151581526020019550505050505060405180910390a15050565b60a060405190810160405280600081526020016000815260200160008152602001600073ffffffffffffffffffffffffffffffffffffffff168152602001600015158152509056fea165627a7a723058202a417aa2024f593dea96aab1b76347ab5237f7302ce832bdd76ce001077332a30029",
  "source": "pragma solidity^0.5.0;\r\n\r\ncontract Marketplace {\r\n    string public name;\r\n    uint public energyCount = 0;\r\n    mapping(uint => Energy) public energies;\r\n\r\n    uint public demandCount = 0;\r\n    mapping(uint => EnergyDemand) public energyDemands;\r\n\r\n\r\n    struct Energy {\r\n        uint id;\r\n        uint quantity;\r\n        uint price;\r\n        address payable owner;\r\n        bool purchased;\r\n    }\r\n\r\n    struct EnergyDemand {\r\n        uint id;\r\n        uint quantity;\r\n        uint price;\r\n        address payable owner;\r\n        bool purchased;\r\n    }\r\n\r\n    event EnergyCreated(\r\n        uint id,\r\n        uint quantity,\r\n        uint price,\r\n        address payable owner,\r\n        bool purchased\r\n    );\r\n\r\n    event EnergyPurchased(\r\n        uint id,\r\n        uint quantity,\r\n        uint price,\r\n        address payable owner,\r\n        bool purchased\r\n    );\r\n\r\n    event EnergyDemandCreated(\r\n        uint id,\r\n        uint quantity,\r\n        uint price,\r\n        address payable owner,\r\n        bool purchased\r\n    );\r\n\r\n     event EnergyDemandFulfilled(\r\n        uint id,\r\n        uint quantity,\r\n        uint price,\r\n        address buyer,\r\n        address payable seller,\r\n        bool purchased\r\n    );\r\n\r\n    constructor() public {\r\n        name = \"VerdePay\";\r\n    }\r\n\r\n    function sellEnergy(uint _quantity, uint _price) public {\r\n        // Require a valid quantity\r\n        require(_quantity > 0);\r\n        //Require a valid price\r\n        require(_price > 0);\r\n        //Increment product count \r\n        energyCount ++;\r\n        // Create an energy listing\r\n        energies[energyCount] = Energy(energyCount, _quantity, _price, msg.sender, false);\r\n        // Trigger an event\r\n        emit EnergyCreated(energyCount, _quantity, _price, msg.sender, false);\r\n    } \r\n\r\n    function purchaseEnergy(uint _id) public payable {\r\n        //Fetch the product\r\n        Energy memory _energy = energies[_id];\r\n        //Fetch the owner\r\n        address payable _seller = _energy.owner;\r\n        //Require a valid id\r\n        require(_energy.id > 0 && _energy.id <= energyCount);\r\n        //Require that there is enough balance in the transaction\r\n        require(msg.value >= _energy.price);\r\n        //Require that the energy is still available\r\n        require(!_energy.purchased);\r\n        //Require that the buyer is not the seller\r\n        require(_seller != msg.sender);\r\n        //Transfer ownership to the buyer\r\n        _energy.owner = msg.sender;\r\n        //Mark as purchased\r\n        _energy.purchased = true;\r\n        //Update the energy\r\n        energies[_id] = _energy;\r\n        //Pay the seller by sending Ether\r\n        address(_seller).transfer(msg.value);\r\n        //Trigger an event\r\n        emit EnergyPurchased(energyCount, _energy.quantity, _energy.price, msg.sender, true);\r\n\r\n    }  \r\n\r\n    function createEnergyDemand(uint _quantity, uint _price) public {\r\n        // Require a valid quantity\r\n        require(_quantity > 0);\r\n        // Require a valid price\r\n        require(_price > 0);\r\n        // Increment demand count\r\n        demandCount++;\r\n        // Create a demand listing\r\n        energyDemands[demandCount] = EnergyDemand(demandCount, _quantity, _price, msg.sender, false);\r\n        // Trigger an event\r\n        emit EnergyDemandCreated(demandCount, _quantity, _price, msg.sender, false);\r\n    }\r\n\r\n    // function fulfillEnergyDemand(uint _id) public payable {\r\n    //     //Fetch the demand\r\n    //     EnergyDemand memory _demand = energyDemands[_id];\r\n    //     //Fetch the owner\r\n    //     address _buyer = _demand.owner;\r\n    //     //Require a valid id\r\n    //     require(_demand.id > 0 && _demand.id <= demandCount);\r\n    //     //Require that there is enough balance in the transaction\r\n    //     require(msg.value >= _demand.price);\r\n    //     //Require that the energy is still available\r\n    //     require(!_demand.purchased);\r\n    //     //Require that the buyer is not the seller\r\n    //     require(_buyer != msg.sender);\r\n\r\n    //     //Mark as purchased\r\n    //     _demand.purchased = true;\r\n\r\n    //     //Update the energy\r\n    //     energyDemands[_id] = _demand;\r\n\r\n    //     //Pay the seller by sending Ether\r\n    //     _demand.owner = msg.sender;\r\n    //     address payable _seller = _demand.owner;\r\n    //     address(_seller).transfer(msg.value);\r\n\r\n    //     //Trigger an event\r\n    //     emit EnergyDemandFulfilled(demandCount, _demand.quantity, _demand.price, _buyer, msg.sender, true);\r\n    // } \r\n\r\n// function fulfillEnergyDemand(uint _id) public payable {\r\n//     require(_id > 0 && _id <= demandCount, \"Invalid demand ID\");\r\n//     EnergyDemand storage demand = energyDemands[_id];\r\n//     require(!demand.purchased, \"Demand already fulfilled\");\r\n//     require(msg.value >= demand.price, \"Insufficient funds\");\r\n\r\n//     // Store the original owner\r\n//     address payable originalOwner = demand.owner;\r\n\r\n//     // Transfer the energy from the demand to the buyer\r\n//     demand.owner = msg.sender;\r\n//     demand.purchased = true;\r\n\r\n//     // Transfer the demand price to the seller\r\n//     originalOwner.transfer(demand.price);\r\n\r\n//     // Trigger an event\r\n//     emit EnergyDemandFulfilled(\r\n//         _id,\r\n//         demand.quantity,\r\n//         demand.price,\r\n//         msg.sender,\r\n//         originalOwner,\r\n//         true\r\n//     );\r\n// }  \r\nfunction fulfillEnergyDemand(uint _id) public payable {\r\n    require(_id > 0 && _id <= demandCount, \"Invalid demand ID\");\r\n    EnergyDemand storage demand = energyDemands[_id];\r\n    require(!demand.purchased, \"Demand already fulfilled\");\r\n    require(msg.value >= demand.price, \"Insufficient funds\");\r\n\r\n    // Store the original owner and buyer\r\n    address payable originalOwner = demand.owner;\r\n    address payable buyer = msg.sender;\r\n\r\n    // Transfer the energy from the demand to the buyer\r\n    demand.owner = buyer;\r\n    demand.purchased = true;\r\n\r\n    // Transfer the demand price to the seller (message sender)\r\n    address payable seller = msg.sender;\r\n    seller.transfer(demand.price);\r\n\r\n    // Refund excess funds to the buyer\r\n    uint256 refundAmount = msg.value - demand.price;\r\n    if (refundAmount > 0) {\r\n        buyer.transfer(refundAmount);\r\n    }\r\n\r\n    // Trigger an event\r\n    emit EnergyDemandFulfilled(\r\n        _id,\r\n        demand.quantity,\r\n        demand.price,\r\n        buyer,\r\n        originalOwner,\r\n        true\r\n    );\r\n}\r\n\r\n}\r\n\r\n\r\n",
  "sourcePath": "C:/Users/arian/verdetradee/src/contracts/Marketplace.sol",
  "compiler": {
    "name": "solc",
    "version": "0.5.0+commit.1d4f565a.Emscripten.clang"
  },
  "schemaVersion": "3.0.2",
  "updatedAt": "2023-06-09T14:11:19.638Z",
  "devdoc": {
    "methods": {}
  },
  "userdoc": {
    "methods": {}
  }
}